{
  "contractName": "Dice",
  "abi": [
    {
      "inputs": [],
      "name": "manager",
      "outputs": [
        {
          "internalType": "address",
          "name": "",
          "type": "address"
        }
      ],
      "stateMutability": "view",
      "type": "function",
      "constant": true
    },
    {
      "inputs": [
        {
          "internalType": "uint256",
          "name": "",
          "type": "uint256"
        }
      ],
      "name": "players",
      "outputs": [
        {
          "internalType": "address payable",
          "name": "",
          "type": "address"
        }
      ],
      "stateMutability": "view",
      "type": "function",
      "constant": true
    },
    {
      "inputs": [],
      "name": "CEO",
      "outputs": [],
      "stateMutability": "nonpayable",
      "type": "function"
    },
    {
      "inputs": [],
      "name": "Enter",
      "outputs": [
        {
          "internalType": "uint256",
          "name": "",
          "type": "uint256"
        }
      ],
      "stateMutability": "payable",
      "type": "function",
      "payable": true
    },
    {
      "inputs": [
        {
          "internalType": "uint256",
          "name": "number",
          "type": "uint256"
        }
      ],
      "name": "getRandomNumber",
      "outputs": [
        {
          "internalType": "uint256",
          "name": "",
          "type": "uint256"
        }
      ],
      "stateMutability": "view",
      "type": "function",
      "constant": true
    },
    {
      "inputs": [],
      "name": "Winner",
      "outputs": [
        {
          "internalType": "string",
          "name": "",
          "type": "string"
        },
        {
          "internalType": "uint256",
          "name": "",
          "type": "uint256"
        },
        {
          "internalType": "uint256",
          "name": "",
          "type": "uint256"
        }
      ],
      "stateMutability": "payable",
      "type": "function",
      "payable": true
    }
  ],
  "bytecode": "0x608060405234801561001057600080fd5b50610970806100206000396000f3fe6080604052600436106100555760003560e01c80631097e5791461005a578063481c6a7514610078578063a1088571146100a3578063b2b98ed2146100ba578063b37217a4146100da578063f71d96cb14610117575b600080fd5b610062610154565b60405161006f919061052c565b60405180910390f35b34801561008457600080fd5b5061008d610205565b60405161009a9190610588565b60405180910390f35b3480156100af57600080fd5b506100b8610229565b005b6100c261026b565b6040516100d19392919061063c565b60405180910390f35b3480156100e657600080fd5b5061010160048036038101906100fc91906106ab565b61047d565b60405161010e919061052c565b60405180910390f35b34801561012357600080fd5b5061013e600480360381019061013991906106ab565b6104d4565b60405161014b91906106f9565b60405180910390f35b600066038d7ea4c68000341161019f576040517f08c379a000000000000000000000000000000000000000000000000000000000815260040161019690610760565b60405180910390fd5b6001339080600181540180825580915050600190039060005260206000200160009091909190916101000a81548173ffffffffffffffffffffffffffffffffffffffff021916908373ffffffffffffffffffffffffffffffffffffffff16021790555090565b60008054906101000a900473ffffffffffffffffffffffffffffffffffffffff1681565b336000806101000a81548173ffffffffffffffffffffffffffffffffffffffff021916908373ffffffffffffffffffffffffffffffffffffffff160217905550565b6060600080600061027c600061047d565b9050600061028a600161047d565b9050808211156103615760016000815481106102a9576102a8610780565b5b9060005260206000200160009054906101000a900473ffffffffffffffffffffffffffffffffffffffff1673ffffffffffffffffffffffffffffffffffffffff166108fc479081150290604051600060405180830381858888f19350505050158015610319573d6000803e3d6000fd5b5081816040518060400160405280600c81526020017f506c6179657220312077696e000000000000000000000000000000000000000081525091909450945094505050610478565b80821015610435576001808154811061037d5761037c610780565b5b9060005260206000200160009054906101000a900473ffffffffffffffffffffffffffffffffffffffff1673ffffffffffffffffffffffffffffffffffffffff166108fc479081150290604051600060405180830381858888f193505050501580156103ed573d6000803e3d6000fd5b5081816040518060400160405280600c81526020017f506c6179657220322077696e000000000000000000000000000000000000000081525091909450945094505050610478565b81816040518060400160405280600481526020017f6472617700000000000000000000000000000000000000000000000000000000815250919094509450945050505b909192565b600080600a42338560405160200161049793929190610818565b6040516020818303038152906040528051906020012060001c6104ba9190610884565b90506002816104c991906108e4565b905080915050919050565b600181815481106104e457600080fd5b906000526020600020016000915054906101000a900473ffffffffffffffffffffffffffffffffffffffff1681565b6000819050919050565b61052681610513565b82525050565b6000602082019050610541600083018461051d565b92915050565b600073ffffffffffffffffffffffffffffffffffffffff82169050919050565b600061057282610547565b9050919050565b61058281610567565b82525050565b600060208201905061059d6000830184610579565b92915050565b600081519050919050565b600082825260208201905092915050565b60005b838110156105dd5780820151818401526020810190506105c2565b838111156105ec576000848401525b50505050565b6000601f19601f8301169050919050565b600061060e826105a3565b61061881856105ae565b93506106288185602086016105bf565b610631816105f2565b840191505092915050565b600060608201905081810360008301526106568186610603565b9050610665602083018561051d565b610672604083018461051d565b949350505050565b600080fd5b61068881610513565b811461069357600080fd5b50565b6000813590506106a58161067f565b92915050565b6000602082840312156106c1576106c061067a565b5b60006106cf84828501610696565b91505092915050565b60006106e382610547565b9050919050565b6106f3816106d8565b82525050565b600060208201905061070e60008301846106ea565b92915050565b7f42657420697320746f6f206c6f77210000000000000000000000000000000000600082015250565b600061074a600f836105ae565b915061075582610714565b602082019050919050565b600060208201905081810360008301526107798161073d565b9050919050565b7f4e487b7100000000000000000000000000000000000000000000000000000000600052603260045260246000fd5b6000819050919050565b6107ca6107c582610513565b6107af565b82525050565b60008160601b9050919050565b60006107e8826107d0565b9050919050565b60006107fa826107dd565b9050919050565b61081261080d82610567565b6107ef565b82525050565b600061082482866107b9565b6020820191506108348285610801565b60148201915061084482846107b9565b602082019150819050949350505050565b7f4e487b7100000000000000000000000000000000000000000000000000000000600052601260045260246000fd5b600061088f82610513565b915061089a83610513565b9250826108aa576108a9610855565b5b828206905092915050565b7f4e487b7100000000000000000000000000000000000000000000000000000000600052601160045260246000fd5b60006108ef82610513565b91506108fa83610513565b9250827fffffffffffffffffffffffffffffffffffffffffffffffffffffffffffffffff0382111561092f5761092e6108b5565b5b82820190509291505056fea2646970667358221220dfb8ab11702ea4e551c3be388cc08435c622a58ed4ac51a06cff9e0622b0b71c64736f6c634300080c0033",
  "immutableReferences": {},
  "source": "// SPDX-License-Identifier: MIT\npragma solidity >=0.4.22 <0.9.0;\n\ncontract Dice {\n  address public manager;\n  address payable[] public players;\n\n  function CEO() public {\n    manager = msg.sender;\n  }\n\n  function Enter() public payable returns(uint) {\n    require(msg.value > .001 ether, \"Bet is too low!\");\n    players.push(payable(msg.sender));\n  }\n\n  function getRandomNumber (uint number) public view returns(uint) {\n    uint brosok = uint(keccak256(abi.encodePacked(block.timestamp, msg.sender, number)))% 10;\n    brosok = brosok + 2;\n    return brosok;\n  }\n  function Winner() public  payable returns(string memory, uint, uint) {\n    uint player1 = getRandomNumber(0);\n    uint player2 = getRandomNumber(1);\n    \n    if (player1 > player2) {\n      players[0].transfer(address(this).balance);\n      return(\"Player 1 win\", player1, player2);\n    }\n    else if (player1 < player2) {\n      players[1].transfer(address(this).balance);\n      return (\"Player 2 win\", player1, player2);\n    }\n    else return (\"draw\", player1, player2);\n  }\n  modifier restricted() {\n    require(msg.sender == manager, \"No access\");\n    _;\n  }\n}\n",
  "sourcePath": "/Users/olgaseglova/Documents/SIMPLEGAMES/contracts/Dice.sol",
  "compiler": {
    "name": "solc",
    "version": "0.8.12+commit.f00d7308.Emscripten.clang"
  },
  "schemaVersion": "3.4.6",
  "updatedAt": "2022-03-27T14:40:07.279Z",
  "networkType": "ethereum",
  "devdoc": {
    "kind": "dev",
    "methods": {},
    "version": 1
  },
  "userdoc": {
    "kind": "user",
    "methods": {},
    "version": 1
  }
}