{
  "contractName": "DragonFarm",
  "abi": [
    {
      "anonymous": false,
      "inputs": [
        {
          "indexed": false,
          "internalType": "uint256",
          "name": "id",
          "type": "uint256"
        },
        {
          "indexed": false,
          "internalType": "string",
          "name": "name",
          "type": "string"
        },
        {
          "indexed": false,
          "internalType": "uint256",
          "name": "dna",
          "type": "uint256"
        }
      ],
      "name": "NewDragon",
      "type": "event"
    },
    {
      "inputs": [
        {
          "internalType": "uint256",
          "name": "",
          "type": "uint256"
        }
      ],
      "name": "DragonOwner",
      "outputs": [
        {
          "internalType": "address",
          "name": "",
          "type": "address"
        }
      ],
      "stateMutability": "view",
      "type": "function",
      "constant": true
    },
    {
      "inputs": [
        {
          "internalType": "uint256",
          "name": "",
          "type": "uint256"
        }
      ],
      "name": "dragons",
      "outputs": [
        {
          "internalType": "uint256",
          "name": "id",
          "type": "uint256"
        },
        {
          "internalType": "string",
          "name": "Name",
          "type": "string"
        },
        {
          "internalType": "uint256",
          "name": "dna",
          "type": "uint256"
        }
      ],
      "stateMutability": "view",
      "type": "function",
      "constant": true
    },
    {
      "inputs": [
        {
          "internalType": "string",
          "name": "name",
          "type": "string"
        }
      ],
      "name": "CreateDragon",
      "outputs": [],
      "stateMutability": "nonpayable",
      "type": "function"
    }
  ],
  "bytecode": "0x608060405234801561001057600080fd5b5061091f806100206000396000f3fe608060405234801561001057600080fd5b50600436106100415760003560e01c80630c50c644146100465780630fab557b14610076578063d2a59d6914610092575b600080fd5b610060600480360381019061005b91906104a1565b6100c4565b60405161006d919061050f565b60405180910390f35b610090600480360381019061008b9190610670565b6100f7565b005b6100ac60048036038101906100a791906104a1565b6102a8565b6040516100bb93929190610750565b60405180910390f35b60016020528060005260406000206000915054906101000a900473ffffffffffffffffffffffffffffffffffffffff1681565b60006101028261036a565b90506000600260003373ffffffffffffffffffffffffffffffffffffffff1673ffffffffffffffffffffffffffffffffffffffff168152602001908152602001600020549050600060405180606001604052808381526020018581526020018481525090806001815401808255809150506001900390600052602060002090600302016000909190919091506000820151816000015560208201518160010190805190602001906101b49291906103b4565b50604082015181600201555050336001600083815260200190815260200160002060006101000a81548173ffffffffffffffffffffffffffffffffffffffff021916908373ffffffffffffffffffffffffffffffffffffffff1602179055507f094a968afe62c9f0ce8d6395ff90deb5cbe7809a9ea66019ef5c61335ab3f11781848460405161024693929190610750565b60405180910390a1600260003373ffffffffffffffffffffffffffffffffffffffff1673ffffffffffffffffffffffffffffffffffffffff168152602001908152602001600020600081548092919061029e906107bd565b9190505550505050565b600081815481106102b857600080fd5b90600052602060002090600302016000915090508060000154908060010180546102e190610835565b80601f016020809104026020016040519081016040528092919081815260200182805461030d90610835565b801561035a5780601f1061032f5761010080835404028352916020019161035a565b820191906000526020600020905b81548152906001019060200180831161033d57829003601f168201915b5050505050908060020154905083565b6000808260405160200161037e9190610867565b6040516020818303038152906040528051906020012060001c9050662386f26fc10000816103ac91906108b8565b915050919050565b8280546103c090610835565b90600052602060002090601f0160209004810192826103e25760008555610429565b82601f106103fb57805160ff1916838001178555610429565b82800160010185558215610429579182015b8281111561042857825182559160200191906001019061040d565b5b509050610436919061043a565b5090565b5b8082111561045357600081600090555060010161043b565b5090565b6000604051905090565b600080fd5b600080fd5b6000819050919050565b61047e8161046b565b811461048957600080fd5b50565b60008135905061049b81610475565b92915050565b6000602082840312156104b7576104b6610461565b5b60006104c58482850161048c565b91505092915050565b600073ffffffffffffffffffffffffffffffffffffffff82169050919050565b60006104f9826104ce565b9050919050565b610509816104ee565b82525050565b60006020820190506105246000830184610500565b92915050565b600080fd5b600080fd5b6000601f19601f8301169050919050565b7f4e487b7100000000000000000000000000000000000000000000000000000000600052604160045260246000fd5b61057d82610534565b810181811067ffffffffffffffff8211171561059c5761059b610545565b5b80604052505050565b60006105af610457565b90506105bb8282610574565b919050565b600067ffffffffffffffff8211156105db576105da610545565b5b6105e482610534565b9050602081019050919050565b82818337600083830152505050565b600061061361060e846105c0565b6105a5565b90508281526020810184848401111561062f5761062e61052f565b5b61063a8482856105f1565b509392505050565b600082601f8301126106575761065661052a565b5b8135610667848260208601610600565b91505092915050565b60006020828403121561068657610685610461565b5b600082013567ffffffffffffffff8111156106a4576106a3610466565b5b6106b084828501610642565b91505092915050565b6106c28161046b565b82525050565b600081519050919050565b600082825260208201905092915050565b60005b838110156107025780820151818401526020810190506106e7565b83811115610711576000848401525b50505050565b6000610722826106c8565b61072c81856106d3565b935061073c8185602086016106e4565b61074581610534565b840191505092915050565b600060608201905061076560008301866106b9565b81810360208301526107778185610717565b905061078660408301846106b9565b949350505050565b7f4e487b7100000000000000000000000000000000000000000000000000000000600052601160045260246000fd5b60006107c88261046b565b91507fffffffffffffffffffffffffffffffffffffffffffffffffffffffffffffffff8214156107fb576107fa61078e565b5b600182019050919050565b7f4e487b7100000000000000000000000000000000000000000000000000000000600052602260045260246000fd5b6000600282049050600182168061084d57607f821691505b6020821081141561086157610860610806565b5b50919050565b600060208201905081810360008301526108818184610717565b905092915050565b7f4e487b7100000000000000000000000000000000000000000000000000000000600052601260045260246000fd5b60006108c38261046b565b91506108ce8361046b565b9250826108de576108dd610889565b5b82820690509291505056fea2646970667358221220e7269f50acef2835dbdaca904c439992ec22709b331b92f74a6879ec9540ecab64736f6c634300080c0033",
  "immutableReferences": {},
  "source": "// SPDX-License-Identifier: MIT\npragma solidity >=0.4.22 <0.9.0;\n\ncontract DragonFarm {\n event NewDragon(uint id, string name, uint dna);\n struct Dragon {\n   uint id;\n   string Name;\n   uint dna;\n }\n  Dragon[] public dragons;\n  mapping(uint => address) public DragonOwner;\n  mapping(address => uint) ownerDragons;\n  \n  function GenerateRandomDna(string memory str)  internal pure returns(uint){\n    uint rand = uint(keccak256(abi.encode(str)));\n    return rand % (10 ** 16);\n  }\n  function CreateDragon(string memory name) public {\n    uint dna = GenerateRandomDna(name);\n    uint id = ownerDragons[msg.sender];\n    dragons.push(Dragon(id, name,dna));\n    DragonOwner[id] = msg.sender;\n    emit NewDragon(id, name,dna);\n    ownerDragons[msg.sender]++;\n  }\n\n}\n",
  "sourcePath": "/Users/olgaseglova/Documents/SIMPLEGAMES/contracts/DragonFarm.sol",
  "compiler": {
    "name": "solc",
    "version": "0.8.12+commit.f00d7308.Emscripten.clang"
  },
  "schemaVersion": "3.4.6",
  "updatedAt": "2022-03-27T14:40:08.090Z",
  "networkType": "ethereum",
  "devdoc": {
    "kind": "dev",
    "methods": {},
    "version": 1
  },
  "userdoc": {
    "kind": "user",
    "methods": {},
    "version": 1
  }
}