{
  "contractName": "MyGame",
  "abi": [
    {
      "inputs": [
        {
          "internalType": "uint256",
          "name": "",
          "type": "uint256"
        }
      ],
      "name": "players",
      "outputs": [
        {
          "internalType": "address payable",
          "name": "",
          "type": "address"
        }
      ],
      "stateMutability": "view",
      "type": "function"
    },
    {
      "inputs": [
        {
          "internalType": "uint256",
          "name": "number",
          "type": "uint256"
        }
      ],
      "name": "getRandomNumber",
      "outputs": [
        {
          "internalType": "uint256",
          "name": "",
          "type": "uint256"
        }
      ],
      "stateMutability": "view",
      "type": "function"
    },
    {
      "inputs": [],
      "name": "Enter",
      "outputs": [
        {
          "internalType": "uint256",
          "name": "",
          "type": "uint256"
        }
      ],
      "stateMutability": "payable",
      "type": "function"
    },
    {
      "inputs": [],
      "name": "Winner",
      "outputs": [
        {
          "internalType": "string",
          "name": "",
          "type": "string"
        },
        {
          "internalType": "uint256",
          "name": "",
          "type": "uint256"
        },
        {
          "internalType": "uint256",
          "name": "",
          "type": "uint256"
        }
      ],
      "stateMutability": "payable",
      "type": "function"
    }
  ],
  "bytecode": "0x608060405234801561001057600080fd5b5061086a806100206000396000f3fe60806040526004361061003f5760003560e01c80631097e57914610044578063b2b98ed214610062578063b37217a414610082578063f71d96cb146100bf575b600080fd5b61004c6100fc565b60405161005991906104d5565b60405180910390f35b61006a6101ad565b60405161007993929190610589565b60405180910390f35b34801561008e57600080fd5b506100a960048036038101906100a491906105f8565b610435565b6040516100b691906104d5565b60405180910390f35b3480156100cb57600080fd5b506100e660048036038101906100e191906105f8565b61047d565b6040516100f39190610666565b60405180910390f35b600066038d7ea4c680003411610147576040517f08c379a000000000000000000000000000000000000000000000000000000000815260040161013e906106cd565b60405180910390fd5b6000339080600181540180825580915050600190039060005260206000200160009091909190916101000a81548173ffffffffffffffffffffffffffffffffffffffff021916908373ffffffffffffffffffffffffffffffffffffffff16021790555090565b606060008060006101be6000610435565b905060006101cc6001610435565b90506000821480156101de5750600181145b806101f557506000821480156101f45750600281145b5b8061020c575060018214801561020b5750600281145b5b156102dd5760008081548110610225576102246106ed565b5b9060005260206000200160009054906101000a900473ffffffffffffffffffffffffffffffffffffffff1673ffffffffffffffffffffffffffffffffffffffff166108fc479081150290604051600060405180830381858888f19350505050158015610295573d6000803e3d6000fd5b5081816040518060400160405280600e81526020017f506c617965722031202077696e2100000000000000000000000000000000000081525091909450945094505050610430565b6002821480156102ed5750600081145b8061030457506002821480156103035750600181145b5b8061031b575060018214801561031a5750600081145b5b156103ed576000600181548110610335576103346106ed565b5b9060005260206000200160009054906101000a900473ffffffffffffffffffffffffffffffffffffffff1673ffffffffffffffffffffffffffffffffffffffff166108fc479081150290604051600060405180830381858888f193505050501580156103a5573d6000803e3d6000fd5b5081816040518060400160405280600d81526020017f506c6179657220322077696e210000000000000000000000000000000000000081525091909450945094505050610430565b81816040518060400160405280600481526020017f6472617700000000000000000000000000000000000000000000000000000000815250919094509450945050505b909192565b600080600342338560405160200161044f93929190610797565b6040516020818303038152906040528051906020012060001c6104729190610803565b905080915050919050565b6000818154811061048d57600080fd5b906000526020600020016000915054906101000a900473ffffffffffffffffffffffffffffffffffffffff1681565b6000819050919050565b6104cf816104bc565b82525050565b60006020820190506104ea60008301846104c6565b92915050565b600081519050919050565b600082825260208201905092915050565b60005b8381101561052a57808201518184015260208101905061050f565b83811115610539576000848401525b50505050565b6000601f19601f8301169050919050565b600061055b826104f0565b61056581856104fb565b935061057581856020860161050c565b61057e8161053f565b840191505092915050565b600060608201905081810360008301526105a38186610550565b90506105b260208301856104c6565b6105bf60408301846104c6565b949350505050565b600080fd5b6105d5816104bc565b81146105e057600080fd5b50565b6000813590506105f2816105cc565b92915050565b60006020828403121561060e5761060d6105c7565b5b600061061c848285016105e3565b91505092915050565b600073ffffffffffffffffffffffffffffffffffffffff82169050919050565b600061065082610625565b9050919050565b61066081610645565b82525050565b600060208201905061067b6000830184610657565b92915050565b7f42657420697320746f6f206c6f77210000000000000000000000000000000000600082015250565b60006106b7600f836104fb565b91506106c282610681565b602082019050919050565b600060208201905081810360008301526106e6816106aa565b9050919050565b7f4e487b7100000000000000000000000000000000000000000000000000000000600052603260045260246000fd5b6000819050919050565b610737610732826104bc565b61071c565b82525050565b600061074882610625565b9050919050565b60008160601b9050919050565b60006107678261074f565b9050919050565b60006107798261075c565b9050919050565b61079161078c8261073d565b61076e565b82525050565b60006107a38286610726565b6020820191506107b38285610780565b6014820191506107c38284610726565b602082019150819050949350505050565b7f4e487b7100000000000000000000000000000000000000000000000000000000600052601260045260246000fd5b600061080e826104bc565b9150610819836104bc565b925082610829576108286107d4565b5b82820690509291505056fea26469706673582212206ecc9bab672cf1d54a3b0fbd220a2c83341353741be7ec2a4b6eeeca2fbd4d0864736f6c634300080c0033",
  "immutableReferences": {},
  "source": "// SPDX-License-Identifier: MIT\npragma solidity >=0.4.22 <0.9.0;\n\ncontract MyGame {\naddress payable[] public players;\n\nfunction getRandomNumber (uint number) public view returns(uint) {\n    uint CompChoice = uint(keccak256(abi.encodePacked(block.timestamp, msg.sender, number)))% 3;\n    return CompChoice;\n}\n    \nfunction Enter() public payable returns(uint) {\n    require(msg.value > .001 ether, \"Bet is too low!\");\n    players.push(payable(msg.sender));\n  }   \n    \n function Winner()  public  payable returns(string memory, uint, uint) {\n    uint player1 = getRandomNumber(0);\n    uint player2 = getRandomNumber(1);\n\n    if (player1 ==0 && player2 == 1 || player1 ==0 && player2 ==2 || player1 ==1 && player2 == 2) {\n      players[0].transfer(address(this).balance);\n      return(\"Player 1  win!\", player1, player2);\n    }\n    else if (player1 == 2 && player2 ==0 ||player1 == 2 && player2 ==1 || player1 == 1 && player2 ==0) {\n      players[1].transfer(address(this).balance);\n      return (\"Player 2 win!\", player1, player2);\n    }\n    else return (\"draw\", player1, player2);\n  \n}\n}\n",
  "sourcePath": "/Users/olgaseglova/Documents/SIMPLEGAMES/contracts/MyGame.sol",
  "compiler": {
    "name": "solc",
    "version": "0.8.12+commit.f00d7308.Emscripten.clang"
  },
  "schemaVersion": "3.4.6",
  "updatedAt": "2022-03-27T14:49:02.051Z",
  "devdoc": {
    "kind": "dev",
    "methods": {},
    "version": 1
  },
  "userdoc": {
    "kind": "user",
    "methods": {},
    "version": 1
  }
}