{
  "contractName": "RandomSeven",
  "abi": [
    {
      "inputs": [
        {
          "internalType": "uint256",
          "name": "x",
          "type": "uint256"
        }
      ],
      "name": "Random",
      "outputs": [
        {
          "internalType": "string",
          "name": "",
          "type": "string"
        }
      ],
      "stateMutability": "pure",
      "type": "function",
      "constant": true
    }
  ],
  "bytecode": "0x608060405234801561001057600080fd5b5061064f806100206000396000f3fe608060405234801561001057600080fd5b506004361061002b5760003560e01c8063bcf69e7214610030575b600080fd5b61004a600480360381019061004591906101c6565b610060565b604051610057919061028c565b60405180910390f35b60606000806130396341c64e6d8561007891906102dd565b6100829190610337565b9350618000620100008561009691906103bc565b6100a091906103ed565b91506000600190505b6005811161014a576001816100be919061041e565b600a6100ca9190610585565b81600a6100d79190610585565b846100e291906103ed565b6100ec91906103bc565b91506007821415610137576040518060400160405280600681526020017f57696e6e657200000000000000000000000000000000000000000000000000008152509350505050610186565b8080610142906105d0565b9150506100a9565b506040518060400160405280600681526020017f4c6f6f7365720000000000000000000000000000000000000000000000000000815250925050505b919050565b600080fd5b6000819050919050565b6101a381610190565b81146101ae57600080fd5b50565b6000813590506101c08161019a565b92915050565b6000602082840312156101dc576101db61018b565b5b60006101ea848285016101b1565b91505092915050565b600081519050919050565b600082825260208201905092915050565b60005b8381101561022d578082015181840152602081019050610212565b8381111561023c576000848401525b50505050565b6000601f19601f8301169050919050565b600061025e826101f3565b61026881856101fe565b935061027881856020860161020f565b61028181610242565b840191505092915050565b600060208201905081810360008301526102a68184610253565b905092915050565b7f4e487b7100000000000000000000000000000000000000000000000000000000600052601160045260246000fd5b60006102e882610190565b91506102f383610190565b9250817fffffffffffffffffffffffffffffffffffffffffffffffffffffffffffffffff048311821515161561032c5761032b6102ae565b5b828202905092915050565b600061034282610190565b915061034d83610190565b9250827fffffffffffffffffffffffffffffffffffffffffffffffffffffffffffffffff03821115610382576103816102ae565b5b828201905092915050565b7f4e487b7100000000000000000000000000000000000000000000000000000000600052601260045260246000fd5b60006103c782610190565b91506103d283610190565b9250826103e2576103e161038d565b5b828204905092915050565b60006103f882610190565b915061040383610190565b9250826104135761041261038d565b5b828206905092915050565b600061042982610190565b915061043483610190565b925082821015610447576104466102ae565b5b828203905092915050565b60008160011c9050919050565b6000808291508390505b60018511156104a957808604811115610485576104846102ae565b5b60018516156104945780820291505b80810290506104a285610452565b9450610469565b94509492505050565b6000826104c2576001905061057e565b816104d0576000905061057e565b81600181146104e657600281146104f05761051f565b600191505061057e565b60ff841115610502576105016102ae565b5b8360020a915084821115610519576105186102ae565b5b5061057e565b5060208310610133831016604e8410600b84101617156105545782820a90508381111561054f5761054e6102ae565b5b61057e565b610561848484600161045f565b92509050818404811115610578576105776102ae565b5b81810290505b9392505050565b600061059082610190565b915061059b83610190565b92506105c87fffffffffffffffffffffffffffffffffffffffffffffffffffffffffffffffff84846104b2565b905092915050565b60006105db82610190565b91507fffffffffffffffffffffffffffffffffffffffffffffffffffffffffffffffff82141561060e5761060d6102ae565b5b60018201905091905056fea264697066735822122010b4febe57eeb44c501be2f027ea294593e64a4207b62f49a25cbd1635e9516264736f6c634300080c0033",
  "immutableReferences": {},
  "source": "// SPDX-License-Identifier: MIT\npragma solidity >=0.4.22 <0.9.0;\n\ncontract RandomSeven {\n  function Random(uint x) public pure returns (string memory) {\n    uint N;\n    uint MasRand;\n    x = x * 1103515245 + 12345;\n    N = (x/65536) % 32768;\n    for (uint i = 1; i <=5; i++) {\n      MasRand = (N % (10 ** i)) / (10 ** (i-1));\n      if (MasRand == 7) return (\"Winner\");\n    }\n    return (\"Looser\");\n  }\n\n  \n}\n",
  "sourcePath": "/Users/olgaseglova/Documents/SIMPLEGAMES/contracts/RandomSeven.sol",
  "compiler": {
    "name": "solc",
    "version": "0.8.12+commit.f00d7308.Emscripten.clang"
  },
  "schemaVersion": "3.4.6",
  "updatedAt": "2022-03-27T14:40:05.538Z",
  "networkType": "ethereum",
  "devdoc": {
    "kind": "dev",
    "methods": {},
    "version": 1
  },
  "userdoc": {
    "kind": "user",
    "methods": {},
    "version": 1
  }
}